:060000000A128A11EE2F26
:100F34003F3406345B344F3466346D347D340734C7
:100F44007F346F347E088A007F0882000A128A1177
:100F5400A4270A128A118000840A04087D06031952
:100F64000034FF0A0319FE0AA82F8316031386010F
:100F74008801F301F4017308203E84008313000800
:100F84008312031388007308203E8400000986003E
:100F94000830F2009D30F1000530F000F00BD02F46
:100FA400F10BD02FF20BD02FD72F0130F3070318FA
:100FB400F40A0030F4077408803AFF0080307F029E
:100FC400031DE62F0A307302031CE92FEA2FBD2FFD
:100FD400BB2F0A128A11002883132A30FD00073020
:100FE400FE009A30FF00203084000A128A11A827DC
:0C0FF4000A128A1183010A128A11B72F19
:00000001FF
