:060000000A128A11E62F2E
:10088C0064008001840A0406031900340406472C12
:10089C004334483431343A344334483430343A34C1
:1008AC007E088A007F0882000A128A1156240A12D6
:1008BC008A118000840A04087D0603190034FF0A9B
:1008CC000319FE0A5A2CF2008312031387157208BF
:1008DC0088000714FE30FF007F088705C330F10045
:1008EC00CD30F000F00B782CF10B782C0800F900CF
:1008FC00F801791C822C832C872C7708FF007F0849
:10090C00F8070310F70D0310F90C7908031D8F2C51
:10091C00902C7F2C78080800F200F730FF007F083D
:10092C00831203138705720888000714FE30FF003A
:10093C007F088705C330F100CD30F000F00BA42CFC
:10094C00F10BA42C0800F401F501700871040319D3
:10095C00B02CB12CE82CF601F60ABF2C0130031098
:10096C00F00DF10DFF3E031DB52C0130FF007F088B
:10097C00F607F11FC22CC32CB42C01300310F40D5C
:10098C00F50DFF3E031DC42C71087302031DD02C02
:10099C0070087202031CD32CD42CDB2C7008F202CE
:1009AC007108031CF303F302741401300310F10CEF
:1009BC00F00CFF3E031DDC2C0130F602031DE72C6E
:1009CC00E82CC32C7508F1007408F0000800003006
:1009DC00FC000030FB000030FA000030F900701C05
:1009EC00F82CF92C102D7408F9077508031103184D
:1009FC00013E0319022DFA07760803110318013E74
:100A0C000319092DFB07770803110318013E03197D
:100A1C00102DFC070130F8000310F40DF50DF60D48
:100A2C00F70DF80B122D01300310F30CF20CF10C36
:100A3C00F00CFF3E031D1A2D730872047104700430
:100A4C00031D292D2A2DF52C7C08F3007B08F200C0
:100A5C007A08F1007908F0000800003083120313C3
:100A6C00C5000030C4000030C3000030C2003D0897
:100A7C003C043B043A040319442D452D922DC60128
:100A8C00C60A552D0130FD000310BA0DBB0DBC0D6F
:100A9C00BD0DFD0B4A2D0130FF007F08C607BD1FA1
:100AAC00582D592D482D0130FD000310C20DC30DDA
:100ABC00C40DC50DFD0B5B2D3D084102031D702DB2
:100ACC003C084002031D702D3B083F02031D702D96
:100ADC003A083E02031C732D742D832D3A08BE0276
:100AEC003B08031C3B0FBF023C08031C3C0FC0021D
:100AFC003D08031C3D0FC102421401300310BD0C14
:100B0C00BC0CBB0CBA0CFF3E031D842D0130C6027D
:100B1C00031D912D922D592D4508BD004408BC0094
:100B2C004308BB004208BA000800233083120313A9
:100B3C00A8002330A9002330AA002330AB002330B7
:100B4C00AC00FB01FB0A3B08B1003A08B0003008CE
:100B5C003104031DB22DB32DF62D3E080A128A1155
:100B6C0092240A128A1130300A128A1169240A124C
:100B7C008A11F62DF630F7003108F3003008F20038
:100B8C000A30F0000030F1000A128A11A9240A126E
:100B9C008A1170080A128A117D240A128A11831292
:100BAC0003133007FA007B08283E84007A0883136D
:100BBC0080000130FF007F08FB070A30F000003096
:100BCC00F1003108F3003008F2000A128A11A9244E
:100BDC000A128A11710883120313B1007008B00055
:100BEC008312031330083104031DFD2DFE2DC02D7F
:100BFC007B08283E8400233083138000FB01FB0A12
:100C0C003E080A128A1192240A128A11352E7B0888
:100C1C00283E8400233083130006031D162E172E46
:100C2C00222E20300A128A1169240A128A110130EC
:100C3C00FF007F08FB07352E7B08283E8400000848
:100C4C00303E83120313AE00003003180130AF00A6
:100C5C002E080A128A1169240A128A111D2E0530D7
:100C6C007B02031C3A2E3B2E0D2E08008316031319
:100C7C00870188010530850080309F000F3083127A
:100C8C00031397005E308316031392000630831211
:100C9C000313920030300A128A1192240A128A111C
:100CAC00C330F400CD30F300F30B5A2EF40B5A2E54
:100CBC0030300A128A1192240A128A11C330F400BD
:100CCC00CD30F300F30B682EF40B682E30300A1283
:100CDC008A1192240A128A11C330F400CD30F30029
:100CEC00F30B762EF40B762E38300A128A119224DE
:100CFC000A128A11C330F400CD30F300F30B842EAA
:100D0C00F40B842E0C300A128A1192240A128A11C6
:100D1C00C330F400CD30F300F30B922EF40B922E73
:100D2C0001300A128A1192240A128A11C330F4007B
:100D3C00CD30F300F30BA02EF40BA02E80300A1252
:100D4C008A1192240A128A1183120313AC01AD0189
:100D5C002C084F3E8400831300080A128A11692460
:100D6C000A128A11013083120313AC070318AD0A5F
:100D7C000030AD0700302D02043003192C02031C87
:100D8C00C82EC92EAE2EC0300A128A1192240A1215
:100D9C008A1183120313AC01AD012C084B3E840065
:100DAC00831300080A128A1169240A128A1101306D
:100DBC0083120313AC070318AD0A0030AD070030E3
:100DCC002D02043003192C02031CED2EEE2ED32E13
:100DDC0004300A128A1192240A128A1108000A128B
:100DEC008A113C260A128A118130831203139F0048
:100DFC00C33083120313C800CC30C700C70B042FB9
:100E0C00C80B042F0000831203131F151F190F2F7B
:100E1C00102F0C2F831603131E0883120313C70005
:100E2C00C8014708B6004808B7001E08C700C8012B
:100E3C004708B4004808B5003408C800C701360894
:100E4C004707A40037080318370A4807A500A6016E
:100E5C00A7012708A3002608A2002508A100240842
:100E6C00A0002308BD002208BC002108BB002008FC
:100E7C00BA008730BE000A128A119B250A128A1109
:100E8C009130831203139F00C33083120313C800E5
:100E9C00CC30C700C70B502FC80B502F000083124B
:100EAC0003131F151F195B2F5C2F582F8316031369
:100EBC001E0883120313C700C8014708B600480870
:100ECC00B7001E08C700C8014708B4004808B500A1
:100EDC003408C800C70136084707A40037080318B0
:100EEC00370A4807A500A601A7010030BD00003055
:100EFC00BC000330BB00FF30BA002708F300260803
:100F0C00F2002508F1002408F0000030F700003052
:100F1C00F6000130F5005130F4000A128A11ED246C
:100F2C000A128A11730883120313C1007208C000DD
:100F3C007108BF007008BE000A128A1133250A120C
:100F4C008A11831203133D08A3003C08A2003B083E
:100F5C00A1003A08A0002308BD002208BC0021080B
:100F6C00BB002008BA00C730BE000A128A119B25AC
:100F7C000A128A11831203132008C7002108C80023
:100F8C002208C9002308CA0002300310CA0CC90C7D
:100F9C00C80CC70CFF3E031DCB2F4708950020083B
:100FAC000339C70004300310C70DFF3E031DD92FB2
:100FBC0017080C3947079700FA2E0A128A110028D5
:100FCC0083135330FD000430FE004E30FF004B30D5
:100FDC0084000A128A115A240A128A1120308400C1
:100FEC003A300A128A1146240A128A1183010A1213
:040FFC008A11F52E33
:02400E003B3F36
:00000001FF
