:060000000A128A11FB2F19
:100EFE00FF308316031386007F30FF007F088105C5
:100F0E00C030870009309900EF30FF007F08980548
:100F1E0090308312031398008316031398168801DA
:100F2E0083120313880108000A128A117F270A12FE
:100F3E008A11831203130608F200B12F4130990073
:100F4E00C72F42309900C72F43309900C72F443026
:100F5E009900C72F7208F000F1017108003A0319C9
:100F6E00B92FC72F7008F73A0319AE2F0C3A031991
:100F7E00AB2F063A0319A82F033A0319A52FC72F33
:100F8E008C1ECA2FCB2FEF2F1A08F300D92F023049
:100F9E008800EF2F04308800EF2F06308800EF2FE7
:100FAE008801EF2F7308F000F1017108003A031960
:100FBE00E12FEF2F7008613A0319CE2F033A031970
:100FCE00D12F013A0319D42F073A0319D72FEF2F38
:100FDE00C330F100CD30F000F00BF32FF10BF32FF7
:100FEE00A02F0A128A110028F30183010A128A1116
:020FFE009B2F27
:02400E003B3F36
:00000001FF
