:060000000A128A11F32F21
:100C7A0064008001840A04060319003404063E2E27
:100C8A00F200831203138715720888000714FE30D6
:100C9A00FF007F088705C330F100CD30F000F00B6C
:100CAA00542EF10B542E0800F900F801791C5E2E1F
:100CBA005F2E632E7708FF007F08F8070310F70DF1
:100CCA000310F90C7908031D6B2E6C2E5B2E780825
:100CDA000800F200F730FF007F088312031387052C
:100CEA00720888000714FE30FF007F088705C330AA
:100CFA00F100CD30F000F00B802EF10B802E0800B1
:100D0A00F401F5017008710403198C2E8D2EC42E7E
:100D1A00F601F60A9B2E01300310F00DF10DFF3E8D
:100D2A00031D912E0130FF007F08F607F11F9E2E4A
:100D3A009F2E902E01300310F40DF50DFF3E031D7A
:100D4A00A02E71087302031DAC2E70087202031CD8
:100D5A00AF2EB02EB72E7008F2027108031CF303EF
:100D6A00F302741401300310F10CF00CFF3E031D62
:100D7A00B82E0130F602031DC32EC42E9F2E75080D
:100D8A00F1007408F0000800831603138701880134
:100D9A0030300A128A116E260A128A11C330F40000
:100DAA00CD30F300F30BD72EF40BD72E30300A12C6
:100DBA008A116E260A128A11C330F400CD30F3006C
:100DCA00F30BE52EF40BE52E30300A128A116E264B
:100DDA000A128A11C330F400CD30F300F30BF32E5C
:100DEA00F40BF32E38300A128A116E260A128A116F
:100DFA00C330F400CD30F300F30B012FF40B012FB5
:100E0A000C300A128A116E260A128A11C330F400B3
:100E1A00CD30F300F30B0F2FF40B0F2F01300A1212
:100E2A008A116E260A128A11C330F400CD30F300FB
:100E3A00F30B1D2FF40B1D2F0800FD01FD0A7B0883
:100E4A0083120313AD007A08AC00612FF630F70065
:100E5A002D08F3002C08F2000A30F0000030F100EF
:100E6A000A128A1185260A128A1170080A128A1130
:100E7A0059260A128A11831203132C07FC007D08D3
:100E8A00203E84007C08831380000130FF007F0825
:100E9A00FD070A30F0000030F1002D08F3002C089D
:100EAA00F2000A128A1185260A128A11710883121F
:100EBA000313AD007008AC002C082D04031D662F27
:100ECA00672F2B2F7D08203E840083138001013079
:100EDA00FD02832F7D08203E840083130008303EE4
:100EEA0083120313AA00003003180130AB002A084A
:100EFA000A128A1145260A128A116C2F7D08031DCF
:100F0A00872F882F6F2F08000A128A11C9260A1202
:100F1A008A11643083120313B4000030B500C8305C
:100F2A00B2000030B3003D30B8002B30B7002D308E
:100F3A00B60080300A128A116E260A128A116430AB
:100F4A00FA000030FB000A128A1122270A128A11BB
:100F5A0083300A128A116E260A128A112D300A1259
:100F6A008A1145260A128A1184300A128A116E26BB
:100F7A000A128A11C830FA000030FB000A128A11DC
:100F8A0022270A128A1187300A128A116E260A1239
:100F9A008A113D300A128A1145260A128A118830AE
:100FAA000A128A116E260A128A112D300A128A1121
:100FBA0045260A128A1189300A128A116E260A12E5
:100FCA008A116430FA000030FB000A128A112227C3
:100FDA000A128A11EF2F0A128A110028831320306D
:100FEA0084003C300A128A113D260A128A118301B2
:060FFA000A128A11892F82
:02400E003B3F36
:00000001FF
