:060000000A128A11E92F2B
:100C9000F2008312031386117208880006150611EC
:100CA000C330F100CD30F000F00B542EF10B542E78
:100CB0000800F200831203138615720888000615D7
:100CC0000611C330F100CD30F000F00B652EF10BB2
:100CD000652E08007E088A007F0882000A128A11A9
:100CE0006A260A128A118000840A04087D06031904
:100CF0000034FF0A0319FE0A6E2E54347234613434
:100D00006E3473346D346934743420344434613453
:100D1000743461343A34523465346334653469343C
:100D2000763465346434203444346134743461344A
:100D30003A34C03083160313870009309900EF302E
:100D4000FF007F089805831203139817181683165F
:100D5000031398168601880130300A128A1148263A
:100D60000A128A11C330F400CD30F300F30BB62E13
:100D7000F40BB62E30300A128A1148260A128A1154
:100D8000C330F400CD30F300F30BC42EF40BC42EAB
:100D900030300A128A1148260A128A11C330F40030
:100DA000CD30F300F30BD22EF40BD22E38300A12D2
:100DB0008A1148260A128A11C330F400CD30F3009C
:100DC000F30BE02EF40BE02E0C300A128A114826A9
:100DD0000A128A11C330F400CD30F300F30BEE2E6B
:100DE000F40BEE2E80300A128A1148260A128A115C
:100DF000F901FA0179082E3E8400831300080A12D3
:100E00008A1159260A128A110130F9070318FA0AC1
:100E10000030FA077A08803AFF0080307F02031D15
:100E2000132F0E307902031C162F172FFA2EC03005
:100E30000A128A1148260A128A11F701F801770866
:100E4000203E8400831300080A128A1159260A12D0
:100E50008A110130F7070318F80A0030F8077808FC
:100E6000803AFF0080307F02031D382F0E3077025A
:100E7000031C3B2F3C2F1F2F08000A128A119926B2
:100E80000A128A11831203138C1E472F482FDD2F5D
:100E90001A08FB00C72F8E300A128A1148260A1240
:100EA0008A1141300A128A1159260A128A11CE304B
:100EB0000A128A1148260A128A1161300A128A110E
:100EC00059260A128A116130831203139900C33024
:100ED000F600CD30F500F50B6B2FF60B6B2FDD2FE9
:100EE0008E300A128A1148260A128A1142300A12DA
:100EF0008A1159260A128A11CE300A128A114826FE
:100F00000A128A1162300A128A1159260A128A11AB
:100F10006230831203139900DD2F8E300A128A117A
:100F200048260A128A1143300A128A1159260A12D7
:100F30008A11CE300A128A1148260A128A116330A9
:100F40000A128A1159260A128A1163308312031376
:100F50009900672F8E300A128A1148260A128A11C8
:100F600044300A128A1159260A128A11CE300A1206
:100F70008A1148260A128A1164300A128A115926E7
:100F80000A128A116430831203139900672F7B08B9
:100F9000F500F6017608003A0319CF2FDD2F75080A
:100FA000413A03194B2F033A0319702F013A0319E1
:100FB0008D2F073A0319AA2FDD2FC330F600CD304D
:100FC000F500F50BE12FF60BE12F422F0A128A11E3
:100FD000002883133C30FD000630FE007D30FF000A
:100FE000203084000A128A116E260A128A11F70133
:100FF000F801F901FA01FB0183010A128A113D2F60
:02400E003B3F36
:00000001FF
