:060000000A128A11D22F42
:100DE60041344E3454344F34CD34CC34CB34CA34FD
:100DF6008234833484348534F200831203138715D6
:100E06007208880007140710C330F100CD30F000D7
:100E1600F00B0B2FF10B0B2F0800F20083120313BC
:100E260087117208880007140710C330F100CD300F
:100E3600F000F00B1C2FF10B1C2F08007E088A0017
:100E46007F0882000A128A1121270A128A1180005D
:100E5600840A04087D0603190034FF0A0319FE0AF2
:100E6600252F0A128A1179270A128A11F8017808A1
:100E7600243E8400831300080A128A1110270A12DE
:100E86008A117808793E840000080A128A11FF2622
:100E96000A128A110130FF007F08F8070430780231
:100EA600031C562F572F3A2FF8017808203E84004E
:100EB600831300080A128A1110270A128A11780869
:100EC600793E840000080A128A11FF260A128A1146
:100ED6000130FF007F08F80704307802031C742FE6
:100EE600752F582F752F0A128A110028831603139F
:100EF6008701880130300A128A1110270A128A11D6
:100F0600C330F400CD30F300F30B872FF40B872F9B
:100F160030300A128A1110270A128A11C330F400DF
:100F2600CD30F300F30B952FF40B952F30300A12CA
:100F36008A1110270A128A11C330F400CD30F3004B
:100F4600F30BA32FF40BA32F38300A128A111027A4
:100F56000A128A11C330F400CD30F300F30BB12F1F
:100F6600F40BB12F0C300A128A1110270A128A11BB
:100F7600C330F400CD30F300F30BBF2FF40BBF2FBB
:100F860001300A128A1110270A128A11C330F4009E
:100F9600CD30F300F30BCD2FF40BCD2F08008313C8
:100FA6002830FD000630FE00F730FF0020308400B8
:100FB6000A128A1125270A128A110A128A11F326A1
:100FC6000A128A11F9000A128A11F4260A128A11E3
:100FD600FA000A128A11F5260A128A11FB000A1271
:100FE6008A11F6260A128A11FC00F501F601F701AC
:0A0FF600F80183010A128A11342F5A
:02400E003B3F36
:00000001FF
