:060000000A128A11E62F2E
:1009980064008001840A0406031900340406CD2C7F
:1009A8007E088A007F0882000A128A11D4240A125B
:1009B8008A118000840A04087D0603190034FF0A9E
:1009C8000319FE0AD82CF200831203138715720844
:1009D80088000714FE30FF007F088705C330F10048
:1009E800CD30F000F00BF62CF10BF62C0800433458
:1009F80061346C345F34563461346C343A342034A6
:100A080000344134633474345F34563461346C34A4
:100A18003A342034003483120313CC00CB014C1C2D
:100A2800162D172D1B2D4A08FF007F08CB07031032
:100A3800CA0D0310CC0C4C08031D232D242D132D97
:100A48004B080800F200F730FF007F0883120313F9
:100A58008705720888000714FE30FF007F088705A5
:100A6800C330F100CD30F000F00B382DF10B382DEC
:100A780008000030FC000030FB000030FA000030B5
:100A8800F900701C482D492D602D7408F907750868
:100A980003110318013E0319522DFA0776080311B2
:100AA8000318013E0319592DFB0777080311031892
:100AB800013E0319602DFC070130F8000310F40D06
:100AC800F50DF60DF70DF80B622D01300310F30C40
:100AD800F20CF10CF00CFF3E031D6A2D7308720432
:100AE80071047004031D792D7A2D452D7C08F300BF
:100AF8007B08F2007A08F1007908F00008008316F4
:100B08000313870188010430850091308312031391
:100B18009F008030831603139F0030300A128A1119
:100B280026250A128A11C330F400CD30F300F30BE6
:100B38009B2DF40B9B2D30300A128A1126250A12A0
:100B48008A11C330F400CD30F300F30BA92DF40B58
:100B5800A92D30300A128A1126250A128A11C330AB
:100B6800F400CD30F300F30BB72DF40BB72D38306C
:100B78000A128A1126250A128A11C330F400CD30D0
:100B8800F300F30BC52DF40BC52D0C300A128A1196
:100B980026250A128A11C330F400CD30F300F30B76
:100BA800D32DF40BD32D01300A128A1126250A12EF
:100BB8008A11C330F400CD30F300F30BE12DF40BB0
:100BC800E12D0800003083120313C8000030C7006D
:100BD8000030C6000030C50040083F043E043D0414
:100BE8000319F72DF82D452EC901C90A082E013021
:100BF800FD000310BD0DBE0DBF0DC00DFD0BFD2D7D
:100C08000130FF007F08C907C01F0B2E0C2EFB2DDB
:100C18000130FD000310C50DC60DC70DC80DFD0B35
:100C28000E2E40084402031D232E3F084302031DD5
:100C3800232E3E084202031D232E3D084102031CB9
:100C4800262E272E362E3D08C1023E08031C3E0FD5
:100C5800C2023F08031C3F0FC3024008031C400F99
:100C6800C402451401300310C00CBF0CBE0CBD0CEF
:100C7800FF3E031D372E0130C902031D442E452EA9
:100C88000C2E4808C0004708BF004608BE004508AB
:100C9800BD000800233083120313A0002330A100F5
:100CA8002330A2002330A3002330A400D201D20AAB
:100CB8005008A8004F08A7004E08A6004D08A50038
:100CC8002808270426042504031D6B2E6C2EBF2E2E
:100CD80030300A128A11E7240A128A11BF2EF63020
:100CE800CA002808C4002708C3002608C20025082F
:100CF800C1000030C0000030BF000030BE000A3024
:100D0800BD000A128A11E6250A128A1183120313FA
:100D18003D080A128A110F250A128A118312031339
:100D28002507D1005208203E840051088313800013
:100D38000130FF007F08D2070030C0000030BF003C
:100D48000030BE000A30BD002808C4002708C300D0
:100D58002608C2002508C1000A128A11E6250A12CF
:100D68008A11831203134008A8003F08A7003E0811
:100D7800A6003D08A50083120313280827042604AB
:100D88002504031DC82EC92E732ED201D20AF42EB3
:100D98005208203E8400233083130006031DD52EFD
:100DA800D62EE32E20300A128A11E7240A128A115D
:100DB8000130FF007F0883120313D207F42E520874
:100DC800203E84000008303EB30000300318013094
:100DD800B40033080A128A11E7240A128A11DC2E99
:100DE80005305202031CF92EFA2ECC2E08000A12E6
:100DF8008A1183250A128A1180300A128A1126253F
:100E08000A128A1183120313B101B20131085F3E3D
:100E18008400831300080A128A11E7240A128A112F
:100E2800013083120313B1070318B20A0030B20766
:100E3800003032020A3003193102031C242F252FF7
:100E48000A2FC0300A128A1126250A128A11831223
:100E58000313B101B2013108553E84008313000821
:100E68000A128A11E7240A128A1101308312031325
:100E7800B1070318B20A0030B207003032020A3054
:100E880003193102031C492F4A2F2F2FCE300A1283
:100E98008A1126250A128A1156300A128A11E72465
:100EA8000A128A11831203131F151F195C2F5D2F55
:100EB800592F831603131E0883120313D300D4017A
:100EC8005308B9005408BA001E08D300D4015308C7
:100ED800B7005408B8003708D400D30139085307BD
:100EE800AD003A0803183A0A5407AE00AF01B00142
:100EF8000030C0000030BF000330BE00FF30BD002E
:100F08003008F3002F08F2002E08F1002D08F00039
:100F18000030F7000030F6000030F5006430F400CF
:100F28000A128A113D250A128A11730883120313C3
:100F3800C4007208C3007108C2007008C1000A1218
:100F48008A11E6250A128A11831203134008AC009D
:100F58003F08AB003E08AA003D08A90004300A1269
:100F68008A1126250A128A118D300A128A1126251D
:100F78000A128A11831203133008D0002F08CF00F9
:100F88002E08CE002D08CD000A128A114E260A120C
:100F98008A11CD300A128A1126250A128A11831263
:100FA80003132C08D0002B08CF002A08CE002908EC
:100FB800CD000A128A114E260A128A11562F0A12D9
:100FC8008A11002883136930FD000430FE00FB30CD
:100FD800FF00553084000A128A11D8240A128A1197
:100FE800203084003D300A128A11CC240A128A115A
:080FF80083010A128A11FB2E8D
:02400E003B3F36
:00000001FF
