:060000000A128A11C02F54
:100EDC000734003406340034813401348734003450
:100EEC00863400347E088A007F0882000A128A1138
:100EFC0078270A128A118000840A04087D060319D7
:100F0C000034FF0A0319FE0A7C2FFF3083160313EB
:100F1C008600870170308316031781008312031338
:100F2C0087010608FC00A72F04308700972F02309A
:100F3C008700972F8701972F06308700972F8701FF
:100F4C00972F7C08FA00FB017B08003A0319AF2F9E
:100F5C00A52F7A087F3A0319A22FC03A0319A02FA4
:100F6C00603A03199D2F303A03199A2FA52F0A12B4
:100F7C008A1100280A128A116E270A128A11F000AF
:100F8C000A128A116F270A128A11F1000A128A11A9
:100F9C0070270A128A11F2000A128A1171270A129A
:100FAC008A11F3000A128A1172270A128A11F400AC
:100FBC000A128A1173270A128A11F5000A128A1171
:100FCC0074270A128A11F6000A128A1175270A125E
:100FDC008A11F7000A128A1176270A128A11F80070
:100FEC000A128A1177270A128A11F90083010A1250
:040FFC008A118B2F9C
:02400E003B3F36
:00000001FF
