:060000000A128A110E280D
:10000800FE00030EF2000A08F3007F08F4000A124B
:100018008A1139280A128A111128F70183010A1254
:100028008A111628FF30831603138600870183126E
:10003800031387017F30FF007F08831603138105B0
:1000480090308B00880183120313880183120313F5
:100058008809C330F600CD30F500F50B3128F60BD2
:1000680031282A280A128A110E288B1C3C283D2880
:100078004828831203138709C330F100CD30F000FC
:10008800F00B4428F10B4428FD30FF007F088B0556
:100098007408FF0073088A00720E8300FE0E7E0E3D
:0200A80009004D
:02400E003B3F36
:00000001FF
