:060000000A128A11FC2F18
:100F6400831603138801803083120313880017301B
:100F7400F200D530F1001630F000F00BBF2FF10B6A
:100F8400BF2FF20BBF2F000084308312031388009D
:100F94001730F200D530F1001630F000F00BD02FEE
:100FA400F10BD02FF20BD02F000004308312031367
:100FB40088001730F200D530F1001630F000F00B45
:100FC400E12FF10BE12FF20BE12F00008312031349
:100FD40088011730F200D530F1001630F000F00B24
:100FE400F12FF10BF12FF20BF12F0000B52F0A12A4
:0C0FF4008A11002883010A128A11B22F12
:02400E003B3F36
:00000001FF
