:060000000A128A11D42F40
:10092E000A128A11D9250A128A110A128A11B626BA
:10093E000A128A119C2C0A128A1100287E088A003B
:10094E007F0882000A128A11A5240A128A118000D9
:10095E00840A04087D0603190034FF0A0319FE0AEF
:10096E00A92CF2008312031387157208880007144E
:10097E00FE30FF007F088705C330F100CD30F00058
:10098E00F00BC72CF10BC72C0800F200F101721C02
:10099E00D12CD22CD62C7008FF007F08F107031043
:1009AE00F00D0310F20C7208031DDE2CDF2CCE2C82
:1009BE0071080800F200F730FF007F08831203135E
:1009CE008705720888000714FE30FF007F08870530
:1009DE00C330F100CD30F000F00BF32CF10BF32C03
:1009EE000800F401F501701CFD2CFE2C042D72087C
:1009FE00F4070318F50A7308F50701300310F20D1A
:100A0E00F30DFF3E031D052D01300310F10CF00C0C
:100A1E00FF3E031D0C2D70087104031D172D182D9C
:100A2E00FA2C7508F1007408F000080042344134C5
:100A3E005434543420344834493447344834003420
:100A4E0000340034003400340034003400340034F8
:100A5E0000340034003400340034003400340034E8
:100A6E0000340034003400344234413454345434AD
:100A7E0020344D3465346434003400340034003492
:100A8E0000340034003400340034003400340034B8
:100A9E0000340034003400340034003400340034A8
:100AAE0000340034423441345434543420344C3401
:100ABE004F345734003400340034003400340034E2
:100ACE000034003400340034003400340034003478
:100ADE000034003400340034003400340034003468
:100AEE004234413454345434203456344F344C341C
:100AFE003A34203420342034203456340034003438
:100B0E000034003400340034003400340034003437
:100B1E00003400340034003400340034FA01FB0198
:100B2E007608770403199C2D9D2DD42DFC01FC0A0B
:100B3E00AB2D01300310F60DF70DFF3E031DA12D59
:100B4E000130FF007F08FC07F71FAE2DAF2DA02D43
:100B5E0001300310FA0DFB0DFF3E031DB02D77087B
:100B6E007902031DBC2D76087802031CBF2DC02D03
:100B7E00C72D7608F8027708031CF903F9027A14D8
:100B8E0001300310F70CF60CFF3E031DC82D01308B
:100B9E00FC02031DD32DD42DAF2D7B08F7007A0850
:100BAE00F60008008316031387018801F0308600D3
:100BBE007F30FF007F08810530300A128A11E12450
:100BCE000A128A11C330F400CD30F300F30BED2D71
:100BDE00F40BED2D30300A128A11E1240A128A111B
:100BEE00C330F400CD30F300F30BFB2DF40BFB2DD3
:100BFE0030300A128A11E1240A128A11C330F4002D
:100C0E00CD30F300F30B092EF40B092E38300A12F7
:100C1E008A11E1240A128A11C330F400CD30F30098
:100C2E00F30B172EF40B172E0C300A128A11E12437
:100C3E000A128A11C330F400CD30F300F30B252EC7
:100C4E00F40B252E01300A128A11E1240A128A11A0
:100C5E00C330F400CD30F300F30B332EF40B332EF0
:100C6E00963083120313DC000030DD000800C03024
:100C7E000A128A11E1240A128A1100308312031318
:100C8E005D02B03003195C0203184E2E4F2E682EF3
:100C9E00E70110306702031C552E562E572EB52E27
:100CAE006708203E8400831300080A128A11B824B4
:100CBE000A128A110130FF007F0883120313E7071F
:100CCE00502E00305D02B03003195C02031C702EF2
:100CDE00712E932E00305D02CE3003195C02031884
:100CEE00792E7A2E932EE70110306702031C802E88
:100CFE00812E822EB52E6708BE3E84008313000817
:100D0E000A128A11B8240A128A110130FF007F08D4
:100D1E0083120313E7077B2E00305D02CE300319DA
:100D2E005C02031C9B2E9C2EB52EE7011030670231
:100D3E00031CA22EA32EA42EB52E6708A03E84005F
:100D4E00831300080A128A11B8240A128A1101307C
:100D5E00FF007F0883120313E7079D2E0800F03073
:100D6E00FF007F088312031386050608E600252F71
:100D7E0080300A128A11E1240A128A118312031397
:100D8E00E70110306702031CCD2ECE2ECF2EE02EA3
:100D9E0067083E3E8400831300080A128A11B824A5
:100DAE000A128A110130FF007F0883120313E7072E
:100DBE00C82E5D08E9005C08E8000A128A113C277B
:100DCE000A128A110A128A113E260A128A113B2F22
:100DDE000130DC070318DD0A0030DD0700305D024C
:100DEE00E23003195C02031CFD2EFE2EE02EE130D4
:100DFE00DC000030DD00E02E0130DC020030031C90
:100E0E00DD03DD0200305D02973003195C0203182A
:100E1E00112F122FE02E9630DC000030DD00E02E78
:100E2E009630DC000030DD005D08E9005C08E8006B
:100E3E000A128A113C270A128A113B2F6608ED000E
:100E4E00EE016E08003A03192D2F3B2F6D08703AF4
:100E5E000319172FC03A0319032F603A0319EF2E07
:100E6E00303A0319BF2E3B2F08006430F6000030D5
:100E7E00F700831203136908F9006808F8000A12D4
:100E8E008A1195250A128A11760883120313EA0035
:100E9E00EB016A08E0006B08E1000A30F600003052
:100EAE00F7006108F1006008F0009C30F200FF309E
:100EBE00F3000A128A11F8240A128A1183120313FC
:100ECE0068087007F80069080318690A7107F900C5
:100EDE000A128A1195250A128A11760883120313B3
:100EEE00EA00EB016A08E2006B08E3009C30F000B8
:100EFE0060080A128A11CC240A128A118312031373
:100F0E00EA00F630F00062080A128A11CC240A12A6
:100F1E008A11831203136A076807EB00EC016B0852
:100F2E00E4006C08E50089300A128A11E1240A12E5
:100F3E008A11831203136008303E0A128A11B824F4
:100F4E000A128A118A300A128A11E1240A128A11AF
:100F5E00831203136208303E0A128A11B8240A1251
:100F6E008A118B300A128A11E1240A128A112E304C
:100F7E000A128A11B8240A128A118C300A128A11A6
:100F8E00E1240A128A11831203136408303E0A12F6
:100F9E008A11B8240A128A1108008313DC30FD006E
:100FAE000530FE001D30FF00A03084000A128A11A9
:100FBE00A9240A128A115C30FD000530FE0059305A
:100FCE00FF00203084000A128A11A9240A128A1105
:100FDE00DC01DD01DE01DF01E001E101E201E301FF
:100FEE00E401E501E601E701FD0183010A128A1120
:020FFE00972C2E
:02400E003B3F36
:00000001FF
