:060000000A128A11FC2F18
:100D4A000A128A11D5260A128A110A128A11302722
:100D5A000A128A11AA2E0A128A110028F200831294
:100D6A00031387117208880007150711C330F100B1
:100D7A00CD30F000F00BBF2EF10BBF2E0800F200B1
:100D8A008312031387157208880007150711C330E9
:100D9A00F100CD30F000F00BD02EF10BD02E080070
:100DAA00831603138701F0308600880130300A1257
:100DBA008A11B3260A128A11C330F400CD30F30027
:100DCA00F30BE52EF40BE52E30300A128A11B32606
:100DDA000A128A11C330F400CD30F300F30BF32E5C
:100DEA00F40BF32E30300A128A11B3260A128A1132
:100DFA00C330F400CD30F300F30B012FF40B012FB5
:100E0A0038300A128A11B3260A128A11C330F40042
:100E1A00CD30F300F30B0F2FF40B0F2F0C300A1207
:100E2A008A11B3260A128A11C330F400CD30F300B6
:100E3A00F30B1D2FF40B1D2F01300A128A11B32652
:100E4A000A128A11C330F400CD30F300F30B2B2FB2
:100E5A00F40B2B2F080083120313061486100611B5
:100E6A00061E382F392F452F31300A128A11C4260F
:100E7A000A128A1183120313061A442F452F3F2F91
:100E8A00861E482F492F552F34300A128A11C4263C
:100E9A000A128A1183120313861A542F552F4F2FC1
:100EAA00061F582F592F652F37300A128A11C42668
:100EBA000A128A1183120313061B642F652F5F2FF0
:100ECA00861F682F692F752F2A300A128A11C426A5
:100EDA000A128A1183120313861B742F752F6F2F20
:100EEA00061086140611061E7B2F7C2F882F32309F
:100EFA000A128A11C4260A128A1183120313061AC5
:100F0A00872F882F822F861E8B2F8C2F982F353074
:100F1A000A128A11C4260A128A1183120313861A24
:100F2A00972F982F922F061F9B2F9C2FA82F383070
:100F3A000A128A11C4260A128A1183120313061B83
:100F4A00A72FA82FA22F861FAB2FAC2FB82F303078
:100F5A000A128A11C4260A128A1183120313861BE3
:100F6A00B72FB82FB22F061086100615061EBE2FF1
:100F7A00BF2FCB2F33300A128A11C4260A128A11C4
:100F8A0083120313061ACA2FCB2FC52F861ECE2F04
:100F9A00CF2FDB2F36300A128A11C4260A128A1181
:100FAA0083120313861ADA2FDB2FD52F061FDE2FA3
:100FBA00DF2FEB2F39300A128A11C4260A128A113E
:100FCA0083120313061BEA2FEB2FE52F861FEE2F42
:100FDA00EF2FFB2F23300A128A11C4260A128A1114
:100FEA0083120313861BFA2FFB2FF52F08008301A8
:060FFA000A128A11A52E67
:02400E003B3F36
:00000001FF
