:060000000A128A11FB2F19
:100F22000A128A119F270A128A110A128A11BB27F2
:100F32000A128A11962F0A128A110028FB30831690
:100F4200031387000F308312031397002E3083168A
:100F52000313920006308312031392000930F40047
:100F62002030F3001C30F200F8012A30F10010307A
:100F7200F000080074088312031395001708CF3994
:100F8200730497001730F700D530F6001630F500DD
:100F9200F50BC92FF60BC92FF70BC92F00007208EA
:100FA2008312031395001708CF397804970017307E
:100FB200F700D530F6001630F500F50BDE2FF60BF4
:100FC200DE2FF70BDE2F000071088312031395004A
:100FD2001708CF39700497001730F700D530F600A4
:100FE2001630F500F50BF32FF60BF32FF70BF32F5B
:0E0FF20000000800F80183010A128A11912FF5
:02400E003B3F36
:00000001FF
